:100000000C9483010C94AB010C94AB010C94AB01E8
:100010000C94AB010C94AB010C94AB010C94AB01B0
:100020000C94AB010C94AB010C94AB010C94AB01A0
:100030000C94AB010C94AB010C94AB010C94AB0190
:100040000C9492050C94AB010C94AB010C94AB0195
:100050000C94AB010C94AB010C94AB010C94AB0170
:100060000C94DC050C94AB01000000002400270078
:100070002A0000000000250028002B0000000000DE
:1000800000000000002F000000000700070000141F
:100090007F147F1400242A7F2A120062640813232D
:1000A00000364955225000000503000000001C22C4
:1000B0004100000041221C000014083E0814000802
:1000C000083E0808000000A06000000808080808B2
:1000D000000060600000002010080402003E51494A
:1000E000453E0000427F40000042615149460021E8
:1000F00041454B31001814127F1000274545453902
:10010000003C4A494930000171090503003649495C
:10011000493600064949291E000036360000000015
:100120005636000000081422410000141414141460
:100130000000412214080002015109060032495909
:10014000513E007C1211127C007F49494936003E25
:1001500041414122007F4141221C007F49494941E0
:10016000007F09090901003E4149497A007F0808DA
:10017000087F0000417F4100002040413F01007F97
:1001800008142241007F40404040007F020C027F63
:10019000007F0408107F003E4141413E007F090975
:1001A0000906003E4151215E007F0919294600469B
:1001B000494949310001017F0101003F4040403F72
:1001C000001F2040201F003F4038403F00631408BC
:1001D0001463000708700807006151494543000097
:1001E0007F414100000204081020000041417F00CF
:1001F00000040201020400404040404000000102AF
:100200000400002054545478007F48444438003897
:100210004444442000384444487F0038545454181F
:1002200000087E0901020018A4A4A47C007F080431
:1002300004780000447D4000004080847D00007F01
:10024000102844000000417F4000007C041804781E
:10025000007C0804047800384444443800FC24241A
:1002600024180018242418FC007C08040408004802
:100270005454542000043F444020003C4040207C23
:10028000001C2040201C003C4030403C0044281012
:100290002844001CA0A0A07C004464544C440008E6
:1002A000364141000000007F000000004141360857
:1002B000000804081008C8A1AD308D14000000002B
:1002C0002300260029000404040404040404020298
:1002D00002020202030303030303010204081020C5
:1002E00040800102040810200102040810200000D0
:1002F00000080002010000030407000000000000E5
:1003000000006F0B5C0B11241FBECFEFD8E0DEBFE7
:10031000CDBF23E0A2EBB1E001C01D92A130B20736
:10032000E1F711E0A0E0B1E0E4E7F1E202C00590FE
:100330000D92A23BB107D9F711E0C2E8D1E004C0A9
:100340002197FE010E94AB0EC138D107C9F70E9468
:10035000FC0B0C94AD100C940000CF92DF92EF9246
:10036000FF920F931F93CF93DF936C017A018B0160
:10037000C0E0D0E0CE15DF0581F0D8016D918D0190
:10038000D601ED91FC910190F081E02DC601099517
:10039000892B11F02196EECF7E01C701DF91CF911D
:1003A0001F910F91FF90EF90DF90CF9008953FB78E
:1003B000F8948091710290917202A0917302B091B1
:1003C000740226B5A89B05C02F3F19F00196A11D08
:1003D000B11D3FBFBA2FA92F982F8827820F911DDB
:1003E000A11DB11DBC01CD0142E0660F771F881F22
:1003F000991F4A95D1F7089540912402262F30E0A5
:10040000240F311D21323105DCF420914A022430C1
:10041000C9F4FC0180E090E0861758F43091240282
:100420002191DC01AE5FBD4FA30FB11D2C9301964E
:10043000F3CF80912402680F6093240280E0089536
:1004400081E0089582E00895089508950895E09167
:10045000F9018091F801E81730F4F0E0E852FE4F1E
:10046000808190E008958FEF9FEF08959091F901BA
:100470008091F801981750F4E92FF0E0E852FE4F10
:10048000208130E09F5F9093F90102C02FEF3FEF92
:10049000C90108958091F80190E02091F901821B33
:1004A00091090895CF92DF92EF92FF920F931F93DD
:1004B000CF93DF937C01CB018A012091D7012223C6
:1004C00089F0EB016B01C40ED51ECC15DD0569F07A
:1004D0006991D701ED91FC910190F081E02DC70168
:1004E0000995F3CF642F0E94FC01C801DF91CF91E1
:1004F0001F910F91FF90EF90DF90CF900895CF93D1
:10050000DF931F92CDB7DEB769832091D7012223F5
:10051000D1F02091FA01203240F021E030E0FC01DE
:100520003383228380E090E015C08091FB01E82FA7
:10053000F0E0E954FE4F998190838F5F8093FB0137
:100540008093FA0105C061E0CE0101960E94FC0192
:1005500081E090E00F90DF91CF910895842F8095F6
:100560000895682F8FE892E00E947F0221E0892B96
:1005700009F420E0822F089581E08093D7018CE375
:100580008093B2011092FB011092FA0181E008956C
:10059000E0917F02F09180022091810230918202ED
:1005A000309711F420FF12C0A9015595479520FFFF
:1005B0000AC0DC01A40FB51F2D913C91E20FF31F7F
:1005C0000190F081E02D840F951F099581E090E066
:1005D0000895089580E090E00895EF92FF920F93C0
:1005E0001F93CF93DF93EC01198218821B821A822A
:1005F0001D821C826115710521F18B01FB010190A7
:100600000020E9F731977F01E61AF70AB7010E9447
:10061000A40A811109C0CE01DF91CF911F910F91E2
:10062000FF90EF900C94CB0AFD82EC82B801888198
:100630009981DF91CF911F910F91FF90EF900C94D2
:10064000A610DF91CF911F910F91FF90EF90089529
:10065000833081F028F4813099F08230A1F0089540
:100660008730A9F08830B9F08430D1F480918000CF
:100670008F7D03C0809180008F77809380000895E4
:1006800084B58F7702C084B58F7D84BD0895809135
:10069000B0008F7703C08091B0008F7D8093B00051
:1006A00008951F93CF93DF93282F30E0F901E25193
:1006B000FD4F8491F901E652FD4FD491F901EA53BF
:1006C000FD4FC491CC23C1F0162F81110E94280345
:1006D000EC2FF0E0EE0FFF1FEE58FF4FA591B49105
:1006E0009FB7F894111104C08C91D095D82302C003
:1006F000EC91DE2BDC939FBFDF91CF911F9108958A
:1007000010924A0281E080934C0210924B0261E009
:1007100082E10E94510361E083E10E945103E9EB11
:10072000F0E080818E7F808380818D7F808388E46C
:100730008093B80085E48093BC000895CF93DF9345
:1007400091E0909301028823B9F0C091B800D09154
:10075000BA008091BC008A7B8093BC0060E082E19B
:100760000E94510360E083E10E9451030E948003D4
:10077000D093BA00C093B800DF91CF91089585ED72
:100780008093BC008091FD019091FE01A091FF013A
:10079000B09100020796A11DB11D23E0B695A79563
:1007A000979587952A95D1F72091BC0024FF1CC00E
:1007B0004091FD015091FE016091FF017091000296
:1007C000452B462B472B81F30097A105B10541F03E
:1007D0002AE22A95F1F700C00197A109B109E4CFF7
:1007E0008091FC010C949E0310924A0208958F920E
:1007F0009F92AF92BF92CF92DF92EF92FF920F93B0
:100800001F93CF93DF931091FA01113208F0C2C009
:10081000D091B2010E94D7016B017C01C0914A02C4
:10082000CC2311F18091FD019091FE01A091FF0177
:10083000B0910002892B8A2B8B2B81F30E94D70168
:100840008090FD019090FE01A090FF01B090000209
:10085000DC01CB018C199D09AE09BF0988169906E8
:10086000AA06BB06D8F682C082E080934A0281E0E5
:1008700080934C028FEF8093490210926E02109386
:100880006D02A7EBB1E0EDE4F2E080E0181721F093
:100890009D9191938F5FFACF10926F0290916F02AA
:1008A0008D2F880F892B80936F0280914B028130AE
:1008B00089F510924B020E94D7016B017C01809157
:1008C0006F028093BB008091FD019091FE01A09189
:1008D000FF01B0910002892B8A2B8B2BA9F00E947B
:1008E000D7010091FD011091FE012091FF0130918F
:1008F0000002DC01CB018C199D09AE09BF09081764
:1009000019072A073B0790F18091BC0083FDD7CFE0
:1009100085EC01C085EE8093BC000E94D7016B017D
:100920007C0180914A02823039F58091FD019091DD
:10093000FE01A091FF01B0910002892B8A2B8B2B25
:1009400081F30E94D7010091FD011091FE012091D9
:10095000FF0130910002DC01CB018C199D09AE0929
:10096000BF09081719072A073B07D8F68091FC0131
:100970000E949E03C5E013C0809149028F3F79F029
:1009800080914902803241F080914902803331F0F8
:10099000C4E005C0C1E003C0C2E001C0C3E01092E2
:1009A000FB011092FA011092D7018C2FDF91CF91A9
:1009B0001F910F91FF90EF90DF90CF90BF90AF907D
:1009C0009F908F900895CF93DF9390E0FC01E652C3
:1009D000FD4F2491FC01EA53FD4F8491882361F17E
:1009E00090E0880F991FFC01E859FF4FC591D49101
:1009F000FC01EE58FF4FA591B491611109C09FB75A
:100A0000F8948881209582238883EC912E230BC053
:100A1000623061F49FB7F8948881322F3095832338
:100A20008883EC912E2B2C939FBF06C08FB7F89430
:100A3000E8812E2B28838FBFDF91CF9108958E30D0
:100A400008F08E508770806480937C0080917A00DB
:100A5000806480937A0080917A0086FDFCCF80913B
:100A600078009091790008958F929F92AF92BF92F3
:100A7000CF92DF92EF92FF926B017C010E94D7012F
:100A80004B015C01C114D104E104F104F1F00E94B6
:100A9000D701DC01CB0188199909AA09BB09883E55
:100AA0009340A105B10570F321E0C21AD108E10815
:100AB000F10888EE880E83E0981EA11CB11CC114B9
:100AC000D104E104F10419F7DDCFFF90EF90DF903E
:100AD000CF90BF90AF909F908F9008951092F901A2
:100AE0001092F8011092FB011092FA010E9480030B
:100AF00084E292E0909323028093220285E292E0C6
:100B000090932702809326020E94BC020E94F70362
:100B1000882339F06AE070E080E090E00E943405BC
:100B2000F3CF08951F920F920FB60F9211242F93B7
:100B30003F938F939F93AF93BF9380918A0290913D
:100B40008B02A0918C02B0918D023091700223E053
:100B5000230F2D3720F40196A11DB11D05C026E8F5
:100B6000230F0296A11DB11D2093700280938A026B
:100B700090938B02A0938C02B0938D0280917102AE
:100B800090917202A0917302B09174020196A11D1E
:100B9000B11D8093710290937202A0937302B0937F
:100BA0007402BF91AF919F918F913F912F910F90C0
:100BB0000FBE0F901F9018951F920F920FB60F92B5
:100BC00011242F933F934F935F936F937F938F9352
:100BD0009F93AF93BF93EF93FF938091B900887F6A
:100BE000803609F49CC068F5883209F45BC090F443
:100BF000803109F454C038F4882309F4F6C08830F1
:100C000009F44DC0F6C0883109F44CC0803209F4B3
:100C10005DC0EFC0803409F468C048F4803309F443
:100C200055C0883309F0E5C080934902D8C08035AB
:100C300009F44FC0883509F45DC0883409F0D9C083
:100C4000D6C0883909F4C7C0A8F4883709F467C04A
:100C500038F4883609F463C0803709F460C0C9C02D
:100C6000883809F4B8C0803909F45FC0803809F0C9
:100C7000C0C05BC0803B09F486C038F4803A09F4F8
:100C800066C0883A09F47FC0B4C0803C09F4A7C0AC
:100C9000883C09F4A4C0883B09F48AC0AAC08091AA
:100CA0006F0210C090916E0280916D02981770F5DE
:100CB000E0916E0281E08E0F80936E02F0E0E35BC4
:100CC000FD4F80818093BB0085EC86C080934902F4
:100CD0008EC0E0916E0281E08E0F80936E02809153
:100CE000BB00F0E0E35BFD4F808390916E0280914A
:100CF0006D026EC0E0916E0281E08E0F80936E02F5
:100D00008091BB00F0E0E35BFD4F808380914C025B
:100D100081116DC081E080934B0284EA61C083E061
:100D200080934A0210924802CFCF809148028032CD
:100D300008F051C0E091480281E08E0F8093480294
:100D40008091BB00F0E0E85DFD4F8083BDCF85EC76
:100D50008093BC0010924A0280914802803230F4A5
:100D6000E0914802F0E0E85DFD4F1082609148029A
:100D700070E0E0912602F091270288E292E0099566
:100D80001092480236C084E080934A0210922502F5
:100D900010922402E0912202F091230209958091A1
:100DA0002402811105C081E0809324021092020286
:100DB000E091250281E08E0F80932502F0E0EE5F46
:100DC000FD4F80818093BB00909125028091240289
:100DD000981708F479CF85E88093BC000AC085ECA9
:100DE0008093BC0010924A0204C0109249020E94F3
:100DF000BF03FF91EF91BF91AF919F918F917F9131
:100E00006F915F914F913F912F910F900FBE0F9077
:100E10001F901895E0919B02F0919C020994E0913B
:100E20009D02F0919E020994E0919F02F091A00230
:100E3000099580E40C940F07CF93C82FE091B3017C
:100E4000F091B401309751F090918E028091B501EC
:100E50004C2F6091B601890F0995C82F8C2F0E94E5
:100E60000F07811107C00E940A070E9414078C2FE8
:100E70000E940F078091B5018F5F8093B501CF91DC
:100E80000895E0919F02F091A002099580E00C94F2
:100E90000F070F931F93CF93DF93162F042FD0913B
:100EA0007602C0917502C40FC770C06B0E944107E3
:100EB0008C2F0E940F078D2F90E0810F911D807F56
:100EC000992724E0959587952A95E1F780610E94FE
:100ED0000F078D2F810F8F700E940F070E940A0746
:100EE00010938E020093B6011092B501DF91CF915D
:100EF0001F910F910895FC0170E000907A0202C0EA
:100F0000660F771F0A94E2F72091B601260F20930F
:100F1000B6019091010130E0492F50E0461B510984
:100F2000421753071CF4961B9093B6014091B601EB
:100F300060E0CF010C9449078F929F92AF92BF92CD
:100F4000CF92DF92EF92FF920F931F93CF93DF9395
:100F50007C01A0917802B09179021296CC911297FF
:100F6000C62ED12CC1110DC014968C9114979601E8
:100F7000281B31091896ED91FC911997E20FF31F88
:100F8000C49113969C90D09177020C2F10E0209181
:100F90008E0230E08091000190E0801B910B82175F
:100FA000930724F4692DC7010E947B0780918E026C
:100FB0009801280F311D2D0F311D8091000190E007
:100FC000821793070CF4D0E0A0917802B0917902D7
:100FD00014968C911497B601681B710909F44AC0E4
:100FE00012968C91129713968C901397882359F030
:100FF000889DC0011124869F6001879FD00C969F19
:10100000D00C112439C0CB01F4E096958795FA9560
:10101000E1F7C12CD12C40E050E08C159D0589F002
:101020009601220F331F1696ED91FC911797E20F50
:10103000F31FA590B4904A0D5B1D3FEFC31AD30A6E
:10104000ECCF24E0880F991F2A95E1F786179707C0
:1010500058F41896ED91FC911997E80FF91FE49157
:101060004E0F511D0196F2CF849E6001859ED00CDB
:10107000112402C0C12CD12C892C0E941407F60126
:101080008E2F8C198C1788F45F018FEFA81AB80A7D
:10109000A0917802B09179028D919C91E80FF91F8F
:1010A00084910E941C07F501EBCFC00ED11EB12C1C
:1010B000DB1529F080E00E941C07B394F9CF0E9451
:1010C0000A074091B60121E04F5F281518F460919E
:1010D0008E0205C0491960918E026C0F6D0FC70119
:1010E0000E9449078A948110C8CFDF91CF911F9148
:1010F0000F91FF90EF90DF90CF90BF90AF909F90B7
:101100008F9008956D3049F1E0917802F091790265
:101110006A3019F463810C947B0724816217E8F02C
:1011200025812617D0F040917D0250917E02E091FA
:101130007B02F0917C029A013595279540FF0AC009
:10114000DC01A20FB31F4D915C91E40FF51F0190DC
:10115000F081E02D820F931F099408959F92AF9222
:10116000BF92CF92DF92EF92FF920F931F93CF9394
:10117000DF93CDB7DEB72C970FB6F894DEBF0FBE66
:10118000CDBF80910201882329F0DD24D394809182
:1011900089028111D12C62E971E0CE0107960E948B
:1011A000ED0220910201222321F08091890290E03A
:1011B00002C080E090E03DE0389FF001399FF00DE3
:1011C0001124ED55FD4FC484222321F08091890222
:1011D00090E002C080E090E0FC01ED57FD4F1081EF
:1011E0001A8219821C821B821E821D82BE01695FC7
:1011F0007F4FCE0101960E942A0B612FCE010196EE
:101200000E94DD0A8C01FC01E480F580FFEFEF1AFB
:10121000FF0AB7010E94A40A882309F46CC1F801EF
:1012200020813181848195816EE371E0820F931F6B
:101230000E94A610F801F582E4826C2DC8010E947C
:10124000DD0ABC01CE0107960E942A0BCE01019651
:101250000E94540B80910201882309F459C08091A7
:101260008902882309F454C01092B4011092B3018A
:1012700040E060E081EF92E00E94490782E00E9436
:10128000810A47E050E060E471E081EF92E00E9463
:10129000AD018B85982F990F890F982F990F84E5B1
:1012A000891B0E94970ACE0107960E949B0A41E083
:1012B00060E081EF92E00E94490782E00E94810A8B
:1012C000809189021DE0189FC001112487559D4F10
:1012D0000E949B0AE09189021E9FF0011124E755AC
:1012E000FD4F8481982F990F890F982F990F8EE7C2
:1012F000891B0E94970A00EB12E033E8C32E32E00C
:10130000D32EFF24F39444E3A42E59EF952E69C005
:10131000D11003C080E090E002C08EEA92E090938A
:10132000B4018093B30140E060E081EF92E00E945D
:10133000490782E00E94810A4CE050E068E471E0D5
:1013400081EF92E00E94AD018B85982F990F890F54
:10135000982F990F86E3891B0E94970ACE01079662
:101360000E949B0A41E060E081EF92E00E94490701
:101370000E9414078CE30E941C0782E40E941C0751
:1013800080918302FCE78F9FC00111246091AF021E
:1013900070E00E94830E062F10E0101728F48AE5F3
:1013A0000E941C071F5FF9CF809183022CE7829F68
:1013B000C00111246091AF0270E00E94830E0CE71F
:1013C000061B10E082E4011721F00E941C071F5F3A
:1013D000F9CF0E941C078CE30E941C070E940A0799
:1013E0008ACF80910201882321F080918902F8162A
:1013F00019F080E090E002C08EEA92E09093B40190
:101400008093B301F3944F2D60E081EF92E00E944E
:10141000490782E00E94810AC8010E949B0AF801E4
:101420008481982F990F890F880FFA2DF81B8F2F21
:101430000E94970A0E941407E12CF8018485E8169F
:1014400038F5F6018181E816B0F48CE30E941C07A0
:1014500082E40E941C078AE50E941C078AE50E941C
:101460001C078AE50E941C078AE50E941C0782E48B
:101470000E941C070BC08CE30E941C0726E0B22EC2
:1014800082E40E941C07BA94B110FACFE394D5CF3E
:101490008CE30E941C07F801E484E99C802D112450
:1014A00099E4E92EE80EB12CBE1428F480E00E94E5
:1014B0001C07B394F9CF0E940A07035F1F4FFFEF89
:1014C000CF1ADF0A26E0F2128CCFCE0107960E94D7
:1014D000540B2C960FB6F894DEBF0FBECDBFDF9134
:1014E000CF911F910F91FF90EF90DF90CF90BF9021
:1014F000AF909F900895C8010E94CB0A9ECE0E9493
:101500009810CF93DF93D82F80918E028D0F809308
:101510008E020E941407C0E0DC1729F080E00E94D0
:101520001C07CF5FF9CFDF91CF910C940A0781118F
:101530000C94810A0895FC01448155816081718178
:1015400081EF92E00C94AD010F931F93CF93DF9343
:10155000EC0188819981009729F02A813B81261727
:10156000370788F48B016F5F7F4F0E94D20F00977F
:1015700061F0998388831B830A832C813D81232B0F
:1015800011F4FC01108281E001C080E0DF91CF9175
:101590001F910F910895CF93DF93EC01888199817A
:1015A000009711F00E94490F198218821D821C8237
:1015B0001B821A82DF91CF910895CF92DF92EF9232
:1015C000FF920F931F93CF93DF9300D000D0CDB73E
:1015D000DEB78C01862F4AE09E012F5F3F4F6901E5
:1015E000B90190E00E94010EF60101900020E9F798
:1015F0003197EC19FD0901F1D8011496ED90FC909A
:101600001597EE0EFF1EB701C8010E94A40A882399
:1016100081F0F8012081318184819581B601820FAA
:10162000931F0E94A610D8011596FC92EE92149773
:1016300003C0C8010E94CB0AC8010F900F900F9001
:101640000F90DF91CF911F910F91FF90EF90DF905E
:10165000CF900895EF92FF920F931F93CF93DF9354
:10166000EC0186179707C1F0FB010081118101157C
:10167000110539F0E480F580B7010E94A40A8111B8
:1016800004C0CE010E94CB0A07C0FD82EC82B801E3
:10169000888199810E94A610CE01DF91CF911F9180
:1016A0000F91FF90EF900895FC0180819181009748
:1016B00011F00C94490F0895CF93DF93C1EFD2E05E
:1016C0002D97CE0106960E94540BCE010E94540B1A
:1016D00082E0C33AD807A1F7DF91CF910895CF9365
:1016E000DF93EFE8F2E01382128288EE93E0A0E04D
:1016F000B0E084839583A683B78388E191E09183EA
:101700008083E1EFF2E0138212828EE695E09093FF
:10171000A2028093A1028CEB92E09093A0028093AE
:101720009F0281EB92E090939E0280939D0287EF4F
:1017300093E090939C0280939B028AE291E09183D4
:10174000808365E571E083EA92E00E94ED0262E940
:1017500071E089EA92E00E94ED02C3EAD2E08AE3F6
:101760008C8768E571E080EB92E00E94ED026FE506
:1017700071E086EB92E00E94ED0282E0898F6AE6DA
:1017800071E08DEB92E00E94ED0262E771E083EC84
:1017900092E00E94ED0289E08EA36CE771E08AEC92
:1017A00092E00E94ED0265E871E080ED92E00E9417
:1017B000ED0288E08BAB63E971E087ED92E00E9477
:1017C000ED0262E771E08DED92E00E94ED0281E0B2
:1017D0008093E3026CE971E084EE92E00E94ED02F6
:1017E00065EA71E08AEE92E00E94ED028AE0809361
:1017F000F002DF91CF910895789484B5826084BD22
:1018000084B5816084BD85B5826085BD85B5816004
:1018100085BD80916E00816080936E001092810082
:10182000809181008260809381008091810081603D
:1018300080938100809180008160809380008091FE
:10184000B10084608093B1008091B000816080938A
:10185000B00080917A00846080937A0080917A0051
:10186000826080937A0080917A00816080937A0010
:1018700080917A00806880937A001092C10060E0C5
:101880008EE00E94E30460E08FE00E94E30462E0E7
:1018900082E00E94E30403E812E0C0E0D0E0CE0161
:1018A0000E94360EF80181938F012196C630D10532
:1018B000B1F7109276021092750280E880930001D1
:1018C00088E080930101E091A102F091A2020995C4
:1018D0000E944107C6EBD2E0FE011491812F0E94C5
:1018E0000F07811107C00E940A070E944107812F3C
:1018F0000E940F072196F2E0CC3BDF0769F70E94B8
:101900000A0789E091E0909379028093780210921F
:10191000770282E898E09093800280937F02109291
:101920008202109281028CE997E090937C0280936E
:101930007B0210927E0210927D0210927A02C0E029
:1019400080910101C81778F44C2F60E081EF92E09C
:101950000E9449078091000190918E02891B0E948C
:10196000970ACF5FEDCF40E060E081EF92E00E9408
:1019700049070E9441078FEA0E940F070E940A0749
:1019800030EFE32E32E0F32E4CEDC42E42E0D42EA5
:1019900058ECA52E52E0B52E60E0862E60E0962E23
:1019A000552453949DE0792E25E0622EF701849111
:1019B000F601C491F501D491DD23A1F081110E94BB
:1019C0002803ED2FF0E0EE0FFF1FE454FD4FA5912B
:1019D000B4918C91C82391E080E009F490E0C92F84
:1019E000D82F02C0C0E0D0E08091F7029091F802B9
:1019F0008C179D0799F02FB7F89480918A029091E7
:101A00008B02A0918C02B0918D022FBF8093F902BE
:101A10009093FA02A093FB02B093FC022FB7F894C4
:101A200080918A0290918B02A0918C02B0918D02DC
:101A30002FBF4091F9025091FA026091FB02709120
:101A4000FC02841B950BA60BB70BC397A105B10530
:101A5000A8F08091F5029091F6028C179D0771F025
:101A6000D093F602C093F502C130D10539F48091CC
:101A700002018525809302010E94AE08D093F802EE
:101A8000C093F70280910201882309F4AEC08EE072
:101A90000E941F058C018FE00E941F05EC010F3092
:101AA00011052CF00F39F2E01F0744F41EC080919D
:101AB000890281110AC0609289020FC08091890257
:101AC000853029F41092890208C08FEF01C081E0AF
:101AD00090918902890F809389020E94AE086CE27E
:101AE00071E080E090E00E943405CF3982E0D807B1
:101AF00054F4CF30D10594F00F5011090039124041
:101B000008F040C052C0E0918902F0E0ED57FD4F6F
:101B100080818823C1F08150808315C08091890223
:101B200090E0FC01ED57FD4F4081789E9001799E39
:101B3000300D1124D901AD55BD4F1C968C9148171D
:101B400010F44F5F40838091890290E0FC01ED57D3
:101B5000FD4F60810E943E0E0E94AE088091890276
:101B6000882329F06CE271E080E090E004C064E634
:101B700070E080E090E00E9434052F97C039D24099
:101B800008F4BACF2FB7F89480918A0290918B0213
:101B9000A0918C02B0918D022FBF8093F902909397
:101BA000FA02A093FB02B093FC0280910201882309
:101BB000E1F08FB7F89440918A0250918B026091C6
:101BC0008C0270918D028FBF8091F9029091FA0280
:101BD000A091FB02B091FC028856954CAF4FBF4FCD
:101BE00084179507A607B70738F08114910409F404
:101BF000DDCE0E940000D4CE109202010E94AE08F9
:101C0000F4CFBB274A3031F4992322F4BDE29095FA
:101C100081959F4F0C940D0EBB27FB015527AA27DA
:101C2000880F991FAA1FA41710F0A41B8395505169
:101C3000B9F7A05DAA3308F0A95DA193009779F7E1
:101C4000B111B1931192CB010C94260EDC01FC0171
:101C5000672F71917723E1F7329704C07C916D93E0
:101C600070836291AE17BF07C8F30895F999FECF4C
:101C700092BD81BDF89A992780B50895262FF999CC
:101C8000FECF1FBA92BD81BD20BD0FB6F894FA9A5F
:101C9000F99A0FBE019608952F923F924F925F924C
:101CA0006F927F928F929F92AF92BF92CF92DF926C
:101CB000EF92FF920F931F93CF93DF93CDB7DEB7D1
:101CC000CA1BDB0B0FB6F894DEBF0FBECDBF099465
:101CD0002A88398848885F846E847D848C849B84BC
:101CE000AA84B984C884DF80EE80FD800C811B81CA
:101CF000AA81B981CE0FD11D0FB6F894DEBF0FBEF9
:101D0000CDBFED01089597FB072E16F4009407D080
:101D100077FD09D00E94970E07FC05D03EF4909500
:101D200081959F4F0895709561957F4F0895AA1BE7
:101D3000BB1B51E107C0AA1FBB1FA617B70710F0B6
:101D4000A61BB70B881F991F5A95A9F780959095E8
:101D5000BC01CD010895EE0FFF1F0590F491E02D19
:101D600009940F931F93CF93DF938230910510F462
:101D700082E090E0E091FF02F091000320E030E08B
:101D8000A0E0B0E0309719F14081518102811381C8
:101D900048175907C8F08417950769F4109731F070
:101DA00012960C93129713961C9327C00093FF0270
:101DB0001093000322C02115310519F04217530773
:101DC00018F49A01BD01EF01DF01F801DBCF211505
:101DD0003105F9F0281B390B2430310580F48A8154
:101DE0009B816115710521F0FB019383828304C0FF
:101DF000909300038093FF02FE01329644C0FE01DF
:101E0000E20FF31F81939193225031093983288384
:101E10003AC02091FD023091FE02232B41F4209123
:101E20000501309106013093FE022093FD022091BE
:101E30000301309104012115310541F42DB73EB75E
:101E40004091070150910801241B350BE091FD02E0
:101E5000F091FE02E217F307A0F42E1B3F0B2817A8
:101E6000390778F0AC014E5F5F4F2417350748F013
:101E70004E0F5F1F5093FE024093FD02819391939A
:101E800002C0E0E0F0E0CF01DF91CF911F910F9110
:101E90000895CF93DF93009709F481C0FC01329736
:101EA00013821282A091FF02B0910003109781F477
:101EB00020813181820F931F2091FD023091FE021B
:101EC0002817390751F5F093FE02E093FD0267C031
:101ED000ED0120E030E0CE17DF0740F44A815B815E
:101EE0009E0141155105F1F0EA01F5CFD383C2837C
:101EF00040815181840F951FC817D90759F48881F3
:101F00009981840F951F0296918380838A819B819A
:101F1000938382832115310529F4F0930003E09324
:101F2000FF023DC0E901FB83EA8349915991C40F47
:101F3000D51FEC17FD0761F480819181840F951FF7
:101F40000296E90199838883828193819B838A83A6
:101F5000E0E0F0E012968D919C911397009719F0B4
:101F6000FD01DC01F7CF8D919C9111979D012E5FB2
:101F70003F4F820F931F2091FD023091FE022817E0
:101F8000390769F4309729F4109200031092FF0288
:101F900002C013821282B093FE02A093FD02DF9171
:101FA000CF910895A0E0B0E0E8EDFFE00C94500E72
:101FB000EC01009721F4CB010E94B10EB4C0FC01EA
:101FC000E60FF71F9C0122503109E217F30708F4CE
:101FD000A8C0D9010D911C91119706171707B0F0F1
:101FE0000530110508F49BC0C801049786179707B0
:101FF00008F495C002501109061B170B01931193A9
:102000006D937C93CF010E94490F89C05B01A01A98
:10201000B10A4C01800E911EA091FF02B091000305
:10202000612C712CE12CF12C109709F446C08D9194
:102030009C911197A815B905B1F56C0142E0C40E49
:10204000D11CCA14DB0478F14C018A189B08640186
:1020500042E0C40ED11C1296BC9012971396AC911C
:10206000B5E0CB16D10440F0B282A3839182808286
:10207000D9016D937C9309C00E5F1F4F800F911F94
:10208000F90191838083EB2DFA2FE114F10431F0F3
:10209000D7011396FC93EE93129741C0F09300037F
:1020A000E093FF023CC06816790608F43C017D010C
:1020B00012960D90BC91A02DB7CF8091FD0290910A
:1020C000FE0288169906E1F466167706C8F4809138
:1020D000030190910401009741F48DB79EB74091A0
:1020E000070150910801841B950BE817F907C8F404
:1020F000F093FE02E093FD02F901718360830FC04B
:10210000CB010E94B10E7C01009759F0A801BE01DD
:102110000E949D10CE010E94490FC70104C0CE014C
:1021200002C080E090E0CDB7DEB7EEE00C946C0E1C
:1021300081E090E0F8940C94AD10FB01DC0102C04A
:1021400001900D9241505040D8F70895FB01DC01F9
:1021500001900D920020E1F7089511E0C2E8D1E06E
:1021600004C0FE010E94AB0E2196C338D107C9F707
:04217000F894FFCF11
:102174008004010000010320007C000601207E0091
:1021840000000000000000007F025202EA02260262
:102194004A023602270200000000C802AD01EA022A
:1021A400E902000000007F0AAD01EA02E9022F0003
:1021B4005265636F7665720053696720536172617B
:1021C4006E6F7661004850005370656C6C730053F9
:1021D400686F72742072657374004865616C696E0F
:1021E40067004C6F6E6720726573740048697420D1
:1021F40044696365004C6F6E6720726573742028B0
:1022040034290050616374204B7072004669726512
:102214002053746600316436206174206461776EE3
:022224000000B8
:107E0000112484B714BE81FFF0D085E080938100F7
:107E100082E08093C00088E18093C10086E0809377
:107E2000C20080E18093C4008EE0C9D0259A86E02C
:107E300020E33CEF91E0309385002093840096BBD3
:107E4000B09BFECF1D9AA8958150A9F7CC24DD24C4
:107E500088248394B5E0AB2EA1E19A2EF3E0BF2EE7
:107E6000A2D0813461F49FD0082FAFD0023811F036
:107E7000013811F484E001C083E08DD089C08234E0
:107E800011F484E103C0853419F485E0A6D080C0E4
:107E9000853579F488D0E82EFF2485D0082F10E0AE
:107EA000102F00270E291F29000F111F8ED06801E7
:107EB0006FC0863521F484E090D080E0DECF843638
:107EC00009F040C070D06FD0082F6DD080E0C81688
:107ED00080E7D80618F4F601B7BEE895C0E0D1E017
:107EE00062D089930C17E1F7F0E0CF16F0E7DF06D8
:107EF00018F0F601B7BEE89568D007B600FCFDCFD4
:107F0000A601A0E0B1E02C9130E011968C91119780
:107F100090E0982F8827822B932B1296FA010C0160
:107F200087BEE89511244E5F5F4FF1E0A038BF0790
:107F300051F7F601A7BEE89507B600FCFDCF97BE46
:107F4000E89526C08437B1F42ED02DD0F82E2BD052
:107F50003CD0F601EF2C8F010F5F1F4F84911BD097
:107F6000EA94F801C1F70894C11CD11CFA94CF0C13
:107F7000D11C0EC0853739F428D08EE10CD085E9AC
:107F80000AD08FE07ACF813511F488E018D01DD067
:107F900080E101D065CF982F8091C00085FFFCCF94
:107FA0009093C60008958091C00087FFFCCF809118
:107FB000C00084FD01C0A8958091C6000895E0E648
:107FC000F0E098E1908380830895EDDF803219F02E
:107FD00088E0F5DFFFCF84E1DECF1F93182FE3DFCA
:107FE0001150E9F7F2DF1F91089580E0E8DFEE27F6
:047FF000FF270994CA
:027FFE00040479
:0400000300007E007B
:00000001FF
